{
  "contractName": "ProofOfExistance1",
  "abi": [
    {
      "constant": false,
      "inputs": [
        {
          "internalType": "string",
          "name": "document",
          "type": "string"
        }
      ],
      "name": "notarize",
      "outputs": [],
      "payable": false,
      "stateMutability": "nonpayable",
      "type": "function"
    },
    {
      "constant": true,
      "inputs": [
        {
          "internalType": "string",
          "name": "document",
          "type": "string"
        }
      ],
      "name": "proofFor",
      "outputs": [
        {
          "internalType": "bytes32",
          "name": "",
          "type": "bytes32"
        }
      ],
      "payable": false,
      "stateMutability": "pure",
      "type": "function"
    }
  ],
  "bytecode": "0x608060405234801561001057600080fd5b5061031d806100206000396000f3fe608060405234801561001057600080fd5b50600436106100365760003560e01c80637183616c1461003b578063f6c1acdf146100f6575b600080fd5b6100f46004803603602081101561005157600080fd5b810190808035906020019064010000000081111561006e57600080fd5b82018360208201111561008057600080fd5b803590602001918460018302840111640100000000831117156100a257600080fd5b91908080601f016020809104026020016040519081016040528093929190818152602001838380828437600081840152601f19601f8201169050808301925050505050505091929192905050506101c5565b005b6101af6004803603602081101561010c57600080fd5b810190808035906020019064010000000081111561012957600080fd5b82018360208201111561013b57600080fd5b8035906020019184600183028401116401000000008311171561015d57600080fd5b91908080601f016020809104026020016040519081016040528093929190818152602001838380828437600081840152601f19601f8201169050808301925050505050505091929192905050506101d7565b6040518082815260200191505060405180910390f35b6101ce816101d7565b60008190555050565b60006002826040516020018082805190602001908083835b6020831061021257805182526020820191506020810190506020830392506101ef565b6001836020036101000a0380198251168184511680821785525050505050509050019150506040516020818303038152906040526040518082805190602001908083835b602083106102795780518252602082019150602081019050602083039250610256565b6001836020036101000a038019825116818451168082178552505050505050905001915050602060405180830381855afa1580156102bb573d6000803e3d6000fd5b5050506040513d60208110156102d057600080fd5b8101908080519060200190929190505050905091905056fea265627a7a72315820ec494d27f0b2ee36b1e9a1cc965cd33494efd0328a7427671743a9a4c0b2a4ca64736f6c63430005100032",
  "source": "pragma solidity >= 0.5.0 < 0.7.0;\n\ncontract ProofOfExistance1 {\n\n  bytes32 proof;\n  //calc and storeproof for a doc\n  function notarize (string memory document) public{\n    proof = proofFor(document);\n  }\n  //get a doc#s sha256\n  function proofFor(string memory document) public pure returns(bytes32){\n    return sha256(abi.encodePacked(document));\n  }\n}\n",
  "sourcePath": "C:\\Users\\Bianca\\proof-of-existence\\contracts\\ProofOfExistance1.sol",
  "compiler": {
    "name": "solc",
    "version": "0.5.16+commit.9c3226ce.Emscripten.clang"
  },
  "schemaVersion": "3.0.23",
  "updatedAt": "2021-10-22T20:31:58.376Z",
  "devdoc": {
    "methods": {}
  },
  "userdoc": {
    "methods": {}
  }
}